:020000040800F2
:1000000000000A20610A0008090900081109000817
:10001000190900082109000829090008B10A000887
:10002000000000000000000000000000B10A00080D
:10003000310900080000000031030008DD0200085B
:10004000B10A0008B10A0008B10A0008B10A0008A4
:10005000B10A0008B10A0008B10A0008B10A000894
:10006000B10A0008B10A0008B10A0008B10A000884
:10007000B10A0008B10A0008B10A0008B10A000874
:10008000B10A0008B10A0008B10A0008B10A000864
:10009000B10A0008B10A0008B10A0008B10A000854
:1000A000B10A0008B10A0008B10A0008B10A000844
:1000B000B10A0008B10A0008B10A0008B10A000834
:1000C000B10A0008B10A0008B10A0008B10A000824
:1000D00000000000B10A0008B10A0008B10A0008D7
:1000E000B10A0008B10A0008B10A0008B10A000804
:1000F000B10A0008B10A0008B10A0008B10A0008F4
:10010000B10A000841090008B10A0008B10A000854
:10011000B10A0008B10A0008B10A0008B10A0008D3
:10012000B10A0008B10A0008B10A0008B10A0008C3
:10013000B10A0008B10A0008B10A0008B10A0008B3
:10014000B10A0008B10A0008B10A0008B10A0008A3
:10015000B10A0008B10A0008B10A0008B10A000893
:10016000B10A0008B10A000855090008B10A0008E0
:10017000B10A0008B10A0008B10A0008B10A000873
:10018000B10A0008B10A0008B10A0008B10A000863
:10019000B10A0008B10A0008B10A0008B10A000853
:1001A000B10A0008B10A0008B10A0008B10A000843
:1001B000B10A0008B10A0008B10A0008B10A000833
:1001C000B10A0008B10A0008B10A0008B10A000823
:1001D000B10A0008B10A0008B10A0008B10A000813
:1001E000B10A0008B10A0008B10A0008B10A000803
:1001F000B10A0008B10A0008B10A0008B10A0008F3
:10020000B10A0008B10A0008B10A000800000000A5
:1002100000000000B10A000800000000B10A000858
:10022000B10A0008B10A0008B10A0008B10A0008C2
:10023000B10A0008B10A0008B10A0008B10A0008B2
:0C024000B10A0008B10A0008B10A000869
:10024C0010B5054C237833B9044B13B10448AFF304
:10025C0000800123237010BDB400002000000000BA
:10026C00F0FC000808B5034B1BB103490348AFF37E
:10027C00008008BD00000000B8000020F0FC000861
:10028C0072B64FF0E0201749C0F8081D16480168F7
:10029C0041F00101016015481249096801604FF0F5
:1002AC00E020134941614FF0070101614FF000015B
:1002BC00C0F8181D4FF07F41C0F81C1D0D49C0F847
:1002CC00201D7047FFF7FEBF01B5BDE80140704728
:1002DC0001B500F097F8BDE801407047FFF7FEBF8D
:1002EC00FFF7FEBF00000008001000E09C68002033
:1002FC00FFE104000000FF404FF000002D4A1060A9
:10030C00EFF3148020F0040080F3148862B64FF0F1
:10031C0080504FF0E021C1F8040DBFF34F8FBFF3B5
:10032C006F8FFEE72448254A4FF00003016891B116
:10033C000360EFF3098C2CE9F00F1EF0100F01D1C4
:10034C002CED108A1E4C4CF804EDC1F808C0256841
:10035C000DB18D61236072B61168D1B1016062B6C6
:10036C004F68174C8D6907F101074F602560D1F874
:10037C000CC08CF30B88D1F808C05CF804EB1EF0B1
:10038C00100F01D1BCEC108ABCE8F00F8CF309887B
:10039C00704772B61168016009B962B6F9E74FF09F
:1003AC0000674FF0E028C8F8047D62B6D8E700BFBC
:1003BC007047000038690020A0680020A468002065
:1003CC00A46E0020026922F00702A2F144026FF031
:1003DC00430313604FF0000353609360D3601361C9
:1003EC0053619361D361136253629362D36213635B
:1003FC0053634FF0FF339363D1634FF080731364F7
:10040C00826070472249086800F101000860214BA6
:10041C001A683AB1A2F101021A601AB91E4B4FF0D8
:10042C00010018601D490868026822B11C4B4FF08E
:10043C0001021A6008E000F104001A4B1A6890429D
:10044C0001D1194B18680860134B1A6812B914497A
:10045C000868C8B101B51249086808B109F0B4FFC1
:10046C000D4B1A6872B109F021FF1048016849B9A7
:10047C000F4801680F4A13680F484FF08052994299
:10048C0000D00260BDE80140BFF34F8F7047000001
:10049C0044690020A46E002048690020D469002023
:1004AC00D8690020D0690020CC6900203869002070
:1004BC00A0680020A468002004ED00E0034613F8B7
:1004CC00012B002AFBD1181A0138704780B586B071
:1004DC0002AF78600023FB60342300934FF48063F9
:1004EC00164A174917480AF019FA0346002B0AD185
:1004FC00144BBB60B86800F02DF8F860FB68002B5B
:10050C0001D000BFFDE7342300934FF4C0430E4AE3
:10051C000E490F480AF002FA0346002B0AD10C4B85
:10052C00BB60B8680EF072FAF860FB68002B01D063
:10053C0000BFFDE700BF1037BD4680BDD0000020D6
:10054C0008FD0008D0040020040500201CFD000854
:10055C000465002080B485B000AF78600023FB6098
:10056C00FB6818461437BD465DF8047B704780B5B0
:10057C0000AF08F001F900BF80BD80B500AF00F0FE
:10058C0093FA00F009F800F0A7F800F067F8FFF70D
:10059C00EEFF00BFFDE7000080B59CB000AF07F197
:1005AC0020035022002118460FF070FB07F10803BE
:1005BC0000221A605A609A60DA601A615A61254BFF
:1005CC001B69244A23F030031361224B1B6903F08F
:1005DC0030037B607B6800BF1E4B5B6903F0080334
:1005EC00082BF9D122233B620123FB6208233B63D6
:1005FC0040237B634FF480537B640023BB6407F17F
:10060C002003184602F020F90346002B01D000F01D
:10061C008FF81F23BB600023FB6000233B6100238A
:10062C007B610023BB610023FB6107F108030121FF
:10063C00184602F041FD0346002B01D000F078F87B
:10064C00054B1B68044A23F03003136000BF70375E
:10065C00BD4680BD000802440020024080B500AFBA
:10066C0000F0A2FB0346002B01D000F061F800BFA4
:10067C0080BD000080B500AF154B164A1A60144BB4
:10068C0008221A71124B0222DA71114B02225A7291
:10069C000F4B00229A720E4B0022DA720C4B002286
:1006AC001A730B4B00225A73094B00229A73084B96
:1006BC000022DA73064B00221A74054800F0E7FB9F
:1006CC000346002B01D000F033F800BF80BD00BF03
:1006DC00386500200060014080B483B000AF0A4B45
:1006EC00D3F88C30084A43F00103C2F88C30064B27
:1006FC00D3F88C3003F001037B607B6800BF0C37B0
:10070C00BD465DF8047B7047000C024480B582B096
:10071C0000AF78607B681B68044A934201D100F0FB
:10072C00EBF900BF0837BD4680BD00BF001000408C
:10073C0080B400AF72B600BF00BFFDE780B400AF5D
:10074C0000BFBD465DF8047B7047000080B5C6B0A5
:10075C0000AF07F58C73A3F58A73186007F58C73DB
:10076C00A3F5847318464FF484731A4600210FF0D6
:10077C008DFA07F58C73A3F58A731B681B68224AE4
:10078C0093423BD107F58C73A3F584714FF00002B3
:10079C004FF01003C1E9002307F58C73A3F58473A4
:1007AC003022C3F8002107F11003184602F0D2FFE3
:1007BC000346002B01D0FFF7BBFF02F035F8134BBB
:1007CC00D3F8A430114A43F08073C2F8A4300F4B15
:1007DC00D3F8A43003F0807207F58C73A3F58673FD
:1007EC001A6007F58C73A3F586731B680022002131
:1007FC004A2000F059FA4A2000F070FA00BF07F5C1
:10080C008C77BD4680BD00BF00600140000C0244E7
:10081C0080B58EB000AF7860334BD3F89C30324A41
:10082C0043F01003C2F89C302F4BD3F89C3003F0EC
:10083C001003BB60BB6807F10C0207F110031146F3
:10084C00184602F04FFFFB69FB62FB6A002B03D1D9
:10085C0002F032FF786304E002F02EFF03465B00E7
:10086C007B637B6B5B09214AA2FB0323DB09013B06
:10087C00BB621F4B1F4A1A601D4B6322DA601C4A75
:10088C00BB6A53601A4B00221A61194B00229A6002
:10089C00174805F019F8034687F8333097F83330CA
:1008AC00002B18D1124805F071F8034687F8333045
:1008BC0097F83330002B0ED17B680F2B08D8002211
:1008CC007968312000F0F0F90B4A7B68136002E084
:1008DC00012387F83330312000F000FA97F83330D9
:1008EC0018463837BD4680BD000C0244C55A7C0AF8
:1008FC0018680020001000400400002080B400AFF5
:10090C0000BFFDE780B400AF00BFFDE780B400AFCF
:10091C0000BFFDE780B400AF00BFFDE780B400AFBF
:10092C0000BFFDE780B400AF00BFBD465DF8047B9F
:10093C007047000080B500AF024805F0D5F800BF45
:10094C0080BD00BF1868002080B500AF024800F0E1
:10095C00B3FB00BF80BD00BF3865002080B483B0FE
:10096C0000AF354BD3F88830334A43F47003C2F8E8
:10097C008830324B01221A60304B0022DA612F4B47
:10098C0000221A622D4B1A682C492D4B13400B6018
:10099C002A4B00229A62294B0022DA62274B002252
:1009AC001A63264B274A5A63244B00229A63234B23
:1009BC00244ADA63214B00221A64204B214A5A64E0
:1009CC001E4B00229A641D4B1B681C4A23F4802387
:1009DC0013601A4B00221A65174B4FF000629A6095
:1009EC00194B9B6903F060437B607B68B3F1604FEC
:1009FC0003D07B68B3F1404F17D1134BDB6903F085
:100A0C000103002B05D0104B104ADA600E4B104A34
:100A1C00DA600D4BDB690C4A43F00203D3610A4BDD
:100A2C00DB69094A43F00103D36100BF0C37BD46B3
:100A3C005DF8047B704700BF00ED00E0000C024441
:100A4C00E3EAE2EA80020101002002403B2A190895
:100A5C007F6E5D4C0D488546FFF780FF0C480D49B5
:100A6C000D4A002302E0D458C4500433C4188C42FD
:100A7C00F9D30A4A0A4C002301E013600432A24263
:100A8C00FBD30FF00BF9FFF778FDFEE700000A200F
:100A9C0000000020B400002080FE0008B4000020FC
:100AAC00F0750020FEE7000080B500AF032000F0D9
:100ABC00F0F802F0B9FC02460C4B1B6A03F00F0372
:100ACC000B49CB5C22FA03F30A4A1360042000F0B2
:100ADC0013F90F20FFF79CFE0346002B01D00123D6
:100AEC0002E0FFF72BFE0023184680BD000C0244E9
:100AFC0058FE00080000002080B400AF064B1B78A5
:100B0C001A46064B1B681344044A136000BFBD46CB
:100B1C005DF8047B704700BF08000020646800206B
:100B2C0080B400AF034B1B681846BD465DF8047BD0
:100B3C00704700BF6468002080B485B000AF786057
:100B4C007B6803F00703FB600C4BDB68BB60BA6887
:100B5C004FF6FF031340BB60FB681A02BB681343DC
:100B6C0043F0BF6343F40033BB60044ABB68D360FB
:100B7C0000BF1437BD465DF8047B704700ED00E004
:100B8C0080B400AF044BDB681B0A03F00703184664
:100B9C00BD465DF8047B704700ED00E080B483B087
:100BAC0000AF0346FB80B7F90630002B0BDBFB884C
:100BBC0003F01F020749B7F906305B09012000FA60
:100BCC0002F241F8232000BF0C37BD465DF8047BD0
:100BDC00704700BF00E100E080B483B000AF034673
:100BEC003960FB80B7F90630002B0ADB3B68DAB2C0
:100BFC000C49B7F906301201D2B20B4483F800232A
:100C0C000AE03B68DAB20849FB8803F00F03043BA7
:100C1C001201D2B20B441A7600BF0C37BD465DF8F8
:100C2C00047B704700E100E000ED00E080B489B087
:100C3C0000AFF860B9607A60FB6803F00703FB61F2
:100C4C00FB69C3F10703042B28BF0423BB61FB69B9
:100C5C000433062B02D9FB69033B00E000237B61C4
:100C6C004FF0FF32BB6902FA03F3DA43BB681A4058
:100C7C007B699A404FF0FF317B6901FA03F3D9434A
:100C8C007B680B40134318462437BD465DF8047B44
:100C9C00704780B582B000AF78607868FFF74CFF82
:100CAC0000BF0837BD4680BD80B586B000AF034697
:100CBC00B9607A60FB81FFF763FF78617A68B96885
:100CCC007869FFF7B3FF0246B7F90E3011461846A4
:100CDC00FFF782FF00BF1837BD4680BD80B582B0DC
:100CEC0000AF0346FB80B7F906301846FFF756FFF6
:100CFC0000BF0837BD4680BD80B483B000AF7860BC
:100D0C007B68042B44D801A252F823F03B0D000859
:100D1C00590D00087B0D00089D0D00082D0D0008D5
:100D2C001F4B1B681E4A43F00403136031E01C4B3D
:100D3C001B681B4A23F0040313601A4BD3F8E430EE
:100D4C00184A23F00C03C2F8E43022E0144B1B6861
:100D5C00134A23F004031360124BD3F8E43023F04E
:100D6C000C03104A43F00403C2F8E43011E00C4BBE
:100D7C001B680B4A23F0040313600A4BD3F8E430CE
:100D8C0023F00C03074A43F00803C2F8E43000E0F8
:100D9C0000BF00BF0C37BD465DF8047B704700BF39
:100DAC0010E000E0000C024480B400AF054B1B685F
:100DBC00044A43F00103136000231846BD465DF856
:100DCC00047B70470004034080B485B000AF7860AA
:100DDC000B467B800A23FB6002E0FB68013BFB6057
:100DEC00FB68002BF9D17B88DB0003F1804303F512
:100DFC00B2335B681B0C9BB2C3F309039BB218465E
:100E0C001437BD465DF8047B704780B485B000AFE5
:100E1C0078600B467B800A23FB6002E0FB68013B99
:100E2C00FB60FB68002BF9D17B88DB0003F180436E
:100E3C0003F5B2331B681B0C9BB2C3F309039BB2C3
:100E4C0018461437BD465DF8047B704780B485B0F6
:100E5C0000AF78600B467B800A23FB6002E0FB68E6
:100E6C00013BFB60FB68002BF9D17B88DB0003F1B5
:100E7C00804303F5B2335B681B0C9BB2C3F30903CD
:100E8C009BB218461437BD465DF8047B704780B59D
:100E9C0086B002AF78607B68002B01D10123C3E0E0
:100EAC007B6893F89532DBB2002B06D17B6800226D
:100EBC0083F894227868FFF749FC7B68032283F857
:100ECC0095227B681B68184605F00AF90023FB7312
:100EDC003FE0FA7B796813469B001344DB000B441C
:100EEC00153301221A70FA7B796813469B00134460
:100EFC00DB000B441433FA7B1A70FA7B79681346C7
:100F0C009B001344DB000B44173300221A70FA7B4E
:100F1C00796813469B001344DB000B4424330022F6
:100F2C001A60FA7B796813469B001344DB000B4470
:100F3C00283300221A60FB7B79685A1C13469B00ED
:100F4C001344DB000B44043300221A60FB7B013397
:100F5C00FB737B681B79FA7B9A42BAD30023FB7331
:100F6C0044E0FA7B796813469B001344DB000B4486
:100F7C0003F2551300221A70FA7B796813469B0012
:100F8C001344DB000B4403F5AA73FA7B1A70FA7B4B
:100F9C00796813469B001344DB000B4403F2571390
:100FAC0000221A70FA7B796813469B001344DB000D
:100FBC000B4403F5B27300221A60FA7B796813466E
:100FCC009B001344DB000B4403F5B47300221A603E
:100FDC00FA7B796813469B001344DB000B4403F542
:100FEC00B67300221A60FB7B0133FB737B681B79A1
:100FFC00FA7B9A42B5D37B6818687B681A7C8DF8AB
:10100C00002004330ECB05F0A3F87B6800225A7441
:10101C007B68012283F895227B681B7B012B02D114
:10102C00786801F0D2FB002318461037BD4680BD0E
:10103C0080B582B000AF78607B6893F89432012B56
:10104C0001D1022312E07B68012283F894227B6891
:10105C001B68184605F030F87B681B68184606F0CC
:10106C0072FF7B68002283F894220023184608370D
:10107C00BD4680BD80B582B000AF78607B6893F8C8
:10108C009432012B01D1022312E07B68012283F8F8
:10109C0094227B681B68184605F022F87B681B6855
:1010AC00184606F061FF7B68002283F89422002327
:1010BC0018460837BD4680BD80B584B000AF786057
:1010CC007B681B68184606F060FFF860FB6803F449
:1010DC000043002B03D0786800F03CFBDEE0FB689B
:1010EC0003F48063002B10D07B681B68596C7B6801
:1010FC001A684FF6FF330B40536478680DF0AAF86A
:10110C000021786800F0CDF8C8E0FB6803F4804358
:10111C00002B09D07B681B68596C7B681A684BF6EE
:10112C00FF730B405364B9E0FB6803F40053002BCE
:10113C0009D07B681B68596C7B681A684DF6FF7385
:10114C000B405364AAE0FB6803F48053002B29D0B6
:10115C007B681B681A6C7B681B6822F004021A649B
:10116C007B681B681A6C7B681B6822F008021A6487
:10117C007B6893F8CC32012B07D17B68002283F873
:10118C00CC220021786801F042FB78680DF0A0F8C1
:10119C007B681B68596C7B681A684EF6FF730B40B2
:1011AC0053647BE0FB6803F40063002B1CD07B686A
:1011BC001B681A6C7B681B6842F008021A647B6817
:1011CC001B68596C7B681A684FF2FF730B405364B1
:1011DC007B681B681A6C7B681B6842F004021A64FB
:1011EC0078680DF05FF859E0FB6803F08003002B82
:1011FC0033D07B681B68596C7B681A684FF67F7319
:10120C000B4053647B6893F8CC32002B21D17B6864
:10121C001B681A6C7B681B6842F004021A647B68BA
:10122C001B681A6C7B681B6842F008021A647B68A6
:10123C00012283F8CC227B681B685B6D9B0803F052
:10124C003C027B68C3F8D0220121786801F0DFFAF8
:10125C0024E078680DF026F820E0FB6803F40073B6
:10126C00002B0CD07B681B68596C7B681A684FF696
:10127C00FF530B40536478680DF040F80EE0FB68A8
:10128C0003F48073002B09D07B681B68596C7B6856
:10129C001A684FF6FF630B40536400BF1037BD460E
:1012AC0080BD80B582B000AF78600B46FB707B6868
:1012BC0093F89432012B01D1022312E07B680122B6
:1012CC0083F894227B68FA785A747B681B68FA78E6
:1012DC001146184606F024FE7B68002283F89422FF
:1012EC00002318460837BD4680BD80B584B000AFDA
:1012FC007860084611461A460346FB700B463B8045
:10130C001346BB700023FB7297F90330002B0FDAE6
:10131C00FB7803F0070213469B001344DB001033E9
:10132C007A6813440433FB60FB6801225A700FE0A7
:10133C00FB7803F0070213469B001344DB0003F514
:10134C00A8737A6813440433FB60FB6800225A705C
:10135C00FB7803F00703DAB2FB681A703B88C3F31F
:10136C000A02FB681A61FB68BA78DA70BB78022B48
:10137C0002D1FB6800221A717B6893F89432012B1E
:10138C0001D102230EE07B68012283F894227B6852
:10139C001B68F968184604F015FF7B68002283F877
:1013AC009422FB7A18461037BD4680BD80B584B0B8
:1013BC0000AF78600B46FB7097F90330002B0FDA07
:1013CC00FB7803F0070213469B001344DB00103339
:1013DC007A6813440433FB60FB6801225A700FE0F7
:1013EC00FB7803F0070213469B001344DB0003F564
:1013FC00A8737A6813440433FB60FB6800225A70AC
:10140C00FB7803F00703DAB2FB681A707B6893F879
:10141C009432012B01D102230EE07B68012283F868
:10142C0094227B681B68F968184605F02BFA7B68D8
:10143C00002283F89422002318461037BD4680BD45
:10144C0080B586B000AFF8607A603B600B46FB72EB
:10145C00FB7A03F0070213469B001344DB0003F5F1
:10146C00A873FA68134404337B617B697A685A6108
:10147C007B693A689A617B690022DA617B69002298
:10148C005A70FB7A03F00703DAB27B691A70FB68B7
:10149C001B687969184605F07FFB0023184618373E
:1014AC00BD4680BD80B483B000AF78600B46FB7046
:1014BC00FB7803F00702796813469B001344DB00AA
:1014CC000B4403F5B8731B6818460C37BD465DF822
:1014DC00047B704780B586B000AFF8607A603B60E3
:1014EC000B46FB72FB7A03F0070213469B00134476
:1014FC00DB001033FA68134404337B617B697A6830
:10150C005A617B693A689A617B69012283F82420CD
:10151C007B693A681A627B690022DA617B69012275
:10152C005A70FB7A03F00703DAB27B691A70FB6816
:10153C001B687969184605F02FFB002318461837ED
:10154C00BD4680BD80B584B000AF78600B46FB70A3
:10155C00FB7803F007037A681279934201D90123CF
:10156C0040E097F90330002B0FDAFB7803F0070209
:10157C0013469B001344DB0010337A681344043386
:10158C00FB60FB6801225A700DE0FA7813469B0051
:10159C001344DB0003F5A8737A6813440433FB602F
:1015AC00FB6800225A70FB6801229A70FB7803F0EA
:1015BC000703DAB2FB681A707B6893F89432012B3C
:1015CC0001D102230EE07B68012283F894227B6810
:1015DC001B68F968184606F049FB7B68002283F803
:1015EC009422002318461037BD4680BD80B584B0C8
:1015FC0000AF78600B46FB70FB7803F00F037A6842
:10160C001279934201D9012342E097F90330002B60
:10161C000FDAFB7803F0070213469B001344DB0040
:10162C0010337A6813440433FB60FB6801225A7050
:10163C000FE0FB7803F0070213469B001344DB001A
:10164C0003F5A8737A6813440433FB60FB6800222B
:10165C005A70FB6800229A70FB7803F00703DAB229
:10166C00FB681A707B6893F89432012B01D102232A
:10167C000EE07B68012283F894227B681B68F96872
:10168C00184606F039FB7B68002283F8942200236D
:10169C0018461037BD4680BD80B584B000AF786069
:1016AC000B46FB7097F90330002B0CDAFB7803F038
:1016BC00070213469B001344DB0010337A68134473
:1016CC000433FB600CE0FB7803F0070213469B002D
:1016DC001344DB0003F5A8737A6813440433FB60EE
:1016EC007B681B68F968184606F09AFB0346FB7288
:1016FC00FB7A18461037BD4680BD80B582B000AF6E
:10170C0078600B46FB707B6893F89432012B01D107
:10171C0002231BE07B68012283F8942297F90330A3
:10172C00002B09DA7B681A68FB7803F0070319466B
:10173C00104604F030FD04E07B681B68184604F08A
:10174C0036FD7B68002283F8942200231846083764
:10175C00BD4680BD80B58EB000AF786026E37B6857
:10176C001B685B6C7B847B8CDBB203F00F0387F80C
:10177C00213097F82130002B40F024817B8C03F032
:10178C001003002B3ED17B681B681A68894B1340F1
:10179C00BB607B681B68BA6842F400421A607B68C5
:1017AC0014337B637B6B1B78DB0003F1804303F505
:1017BC00B2331B681B0CC3F309027B6BDA617B6BC6
:1017CC005A697B6BDB691A447B6B5A610021786820
:1017DC000CF008FC7B685B7CDBB2002B00F0E68233
:1017EC007B6B9B69002B40F0E1827B685B7CDBB2FE
:1017FC0063F07F03DAB27B681B68DA647B680022D3
:10180C005A74D3E27B6803F5AA737B637B681B680D
:10181C001B687B867B8E03F40063002B27D07B68D0
:10182C001A687B6B1B7819461046FFF7CDFA0346F6
:10183C001A467B6BDA617B6818687B6803F5277145
:10184C007B6BDA887B6BDB699BB206F00DFC7B68EB
:10185C001B681A68584B1340FB607B681B68FA685E
:10186C0042F080021A6078680CF042FB9EE2B7F9F5
:10187C003230002B80F29A827B681B681A684E4BC0
:10188C001340FB627B681B68FA6A42F080021A60A4
:10189C007B681A687B6B1B7819461046FFF794FA25
:1018AC0003461A467B6BDA617B6BDB69002B19D024
:1018BC007B6B5B69002B15D07B6818687B6B596957
:1018CC007B6BDA887B6BDB699BB206F0CDFB7B6BA9
:1018DC005A697B6BDB691A447B6B5A61002178680F
:1018EC000CF038FC7B681B681B687B867B8E03F4D2
:1018FC000063002B40F05A827B8E03F44053B3F507
:10190C00405F00F053822D4B5B682C4A23F07C43E4
:10191C0053607B6B1B69002B06D1284B5B68274AF5
:10192C0043F0004353602EE07B6B1B693E2B14D8B5
:10193C007B6B1B695B087B617B6B1B6903F0010391
:10194C00002B02D07B6901337B611C4B5A687B698D
:10195C009B061A4913434B6015E07B6B1B695B09B3
:10196C007B617B6B1B6903F01F03002B02D17B692E
:10197C00013B7B61114B5A687B699B0613430F4AF1
:10198C0043F0004353607B681B681A680C4B134090
:10199C003B613B6983F480533B613B6983F40053A7
:1019AC003B617B681A683B6943F4004343F0800356
:1019BC001360FBE10F8FFF078F0FFF0700640140DF
:1019CC008FBFFF077B681B681A4697F821309B0076
:1019DC0013441B687B86B7F93230002B80F2BD8034
:1019EC007B681B681A4697F821309B0013441A68D1
:1019FC009E4B1340FB617B681B681A4697F821309D
:101A0C009B001344FA6942F080021A6097F8212077
:101A1C0013469B001344DB0003F5A8737A68134448
:101A2C0004337B637B6B1B7B002B16D17B681A68A2
:101A3C007B6B1B7819461046FFF7C6F90346BB842F
:101A4C00BB8C002B67D07B6818687B6B59697B6BF0
:101A5C00DA88BB8C06F008FB5DE07B6BDB78022B35
:101A6C0008D17B8E1A46796B786800F0ADF9034685
:101A7C00BB8450E07B681B681A467B6B1B789B0011
:101A8C0013441A687A4B1340BB617B681B681A4677
:101A9C007B6B1B789B001A44BB6943F4004343F0F7
:101AAC00C00313607B681B681A467B6B1B789B001A
:101ABC0013441B6803F48043002B16D07B681A6810
:101ACC007B6B1B7819461046FFF79FF90346BB84C6
:101ADC00BB8C002B1FD07B6818687B6B59697B6BA8
:101AEC001A89BB8C06F0C0FA15E07B681A687B6B10
:101AFC001B7819461046FFF7A9F90346BB84BB8C2B
:101B0C00002B08D07B6818687B6B59697B6B5A89F2
:101B1C00BB8C06F0A9FA7B6BDA69BB8C1A447B6B25
:101B2C00DA617B6B5A69BB8C1A447B6B5A617B6B99
:101B3C009B69002B04D0BA8C7B6B1B699A4206D232
:101B4C007B6B1B78194678680CF004FB05E07B680E
:101B5C001B68796B184605F01FF87B8E03F0800329
:101B6C00002B00F0238197F8212013469B0013448F
:101B7C00DB0010337A68134404337B637B681B6887
:101B8C001A4697F821309B0013441A68394B1340BE
:101B9C00BB627B681B681A4697F821309B00134484
:101BAC00BA6A42F400421A607B6BDB78012B40F07E
:101BBC00B8807B6B00229A617B6B1B7B002B00F047
:101BCC00A9807B8E03F04003002B55D07B6B5B7898
:101BDC00002B24D17B6B1B78DB0003F1804303F5D6
:101BEC00B2331A687B6B1B78DB0003F1804303F57F
:101BFC00B23322F07C421A607B6B1B78DB0003F162
:101C0C00804303F5B2331A687B6B1B78DB0003F15E
:101C1C00804303F5B23342F000421A607AE07B6BEA
:101C2C005B78012B76D17B6B1B78DB0003F1804357
:101C3C0003F5B2331A687B6B1B78DB0003F180432E
:101C4C0003F5B23392B21A607B6B1B78DB0003F1A5
:101C5C00804202F5B2327B6B1B78DB0003F18043D0
:101C6C0003F5B23312681A6054E000BF8F0FFF0700
:101C7C008F8FFF070F8FFF077B6B5B78002B24D1B7
:101C8C007B6B1B78DB0003F1804303F5B2335A689E
:101C9C007B6B1B78DB0003F1804303F5B23322F03E
:101CAC007C425A607B6B1B78DB0003F1804303F5AD
:101CBC00B2335A687B6B1B78DB0003F1804303F56E
:101CCC00B23342F000425A6024E07B6B5B78012B0C
:101CDC0020D17B6B1B78DB0003F1804303F5B2331F
:101CEC005A687B6B1B78DB0003F1804303F5B2333E
:101CFC0092B25A607B6B1B78DB0003F1804202F5D9
:101D0C00B2327B6B1B78DB0003F1804303F5B233FB
:101D1C0052685A607B6B1B78194678680CF062F934
:101D2C0044E07B8E03F48073002B39D17B6B1B78E2
:101D3C00DB0003F1804303F5B2331B681B0C9BB231
:101D4C00C3F30903FB847B6B9A69FB8C9A4206D91B
:101D5C007B6B9A69FB8CD21A7B6B9A6102E07B6B72
:101D6C0000229A617B6B9B69002B06D17B6B1B78E5
:101D7C00194678680CF036F918E07B6B5A69FB8CC5
:101D8C001A447B6B5A617B6BDA69FB8C1A447B6B54
:101D9C00DA617B681B68796B184604F0FDFE05E080
:101DAC007B8E1A46796B786800F0E8F87B681B68C4
:101DBC005B6C03F40043002B7FF4D1AC002318467A
:101DCC003837BD4680BD00BF80B58AB000AFF86023
:101DDC00B9601346FB80FB8803F48043002B62D070
:101DEC00FB681A68BB681B7819461046FFF70DF89C
:101DFC000346FB83BB689A69FB8B9A4206D3BB688C
:101E0C009A69FB8BD21ABB689A6102E0BB6800220C
:101E1C009A61BB689B69002B1BD1FB681B681A4637
:101E2C00BB681B789B0013441A68524B1340BB6170
:101E3C00BB6983F40053BB61FB681B681A46BB6823
:101E4C001B789B001A44BB6943F4004343F08003A6
:101E5C001360FB8803F04003002B17D0FB681B6852
:101E6C001A46BB681B789B0013441A68424B1340FC
:101E7C007B61FB681B681A46BB681B789B001A4485
:101E8C007B6943F4004343F0C0031360FB8B002BCE
:101E9C006BD0FB681868BB685969BB681A89FB8BE7
:101EAC0006F0E2F861E0FB681A68BB681B7819461B
:101EBC001046FEF7CBFF0346FB83BB689A69FB8B8E
:101ECC009A4206D3BB689A69FB8BD21ABB689A619B
:101EDC0002E0BB6800229A61BB689B69002B1BD196
:101EEC00FB681B681A46BB681B789B0013441A6876
:101EFC00204B13407B627B6A83F400537B62FB684C
:101F0C001B681A46BB681B789B001A447B6A43F417
:101F1C00004343F080031360FB8803F04003002B65
:101F2C0017D1FB681B681A46BB681B789B001344CF
:101F3C001A68114B13403B62FB681B681A46BB685E
:101F4C001B789B001A443B6A43F4004343F0C003E4
:101F5C001360FB8B002B08D0FB681868BB685969B1
:101F6C00BB685A89FB8B06F07FF8FB8B1846283729
:101F7C00BD4680BD8FBFFF078F8FFF0780B58EB02A
:101F8C0000AFF860B9601346FB80FB8803F0400398
:101F9C00002B00F0D581FB681A68BB681B781946CA
:101FAC001046FEF732FF0346FB83BB689A69FB8B36
:101FBC009A4206D9BB689A69FB8BD21ABB689A61A4
:101FCC0002E0BB6800229A61BB689B69002B40F061
:101FDC00C180BB685B78002B24D1BB681B78DB000D
:101FEC0003F1804303F5B2331A68BB681B78DB003E
:101FFC0003F1804303F5B23322F07C421A60BB68D4
:10200C001B78DB0003F1804303F5B2331A68BB681D
:10201C001B78DB0003F1804303F5B23342F000423E
:10202C001A6024E0BB685B78012B20D1BB681B785D
:10203C00DB0003F1804303F5B2331A68BB681B78ED
:10204C00DB0003F1804303F5B23392B21A60BB6834
:10205C001B78DB0003F1804202F5B232BB681B78BF
:10206C00DB0003F1804303F5B23312681A60BB68DE
:10207C005B78002B24D1BB681B78DB0003F1804319
:10208C0003F5B2335A68BB681B78DB0003F180435D
:10209C0003F5B23322F07C425A60BB681B78DB003C
:1020AC0003F1804303F5B2335A68BB681B78DB003D
:1020BC0003F1804303F5B23342F000425A6024E04E
:1020CC00BB685B78012B20D1BB681B78DB0003F16C
:1020DC00804303F5B2335A68BB681B78DB0003F10D
:1020EC00804303F5B23392B25A60BB681B78DB00B5
:1020FC0003F1804202F5B232BB681B78DB0003F1BE
:10210C00804303F5B23352685A60BB681B7819469A
:10211C00F8680BF067FFFB8803F48043002B00F09A
:10212C00E582FB681B681A46BB681B789B0013444E
:10213C001A688E4B13407B63FB681B681A46BB689E
:10214C001B789B001A447B6B43F4404343F08003A1
:10215C001360CBE2FB8803F48043002B17D0FB68A1
:10216C001B681A46BB681B789B0013441A687F4B8C
:10217C001340BB62FB681B681A46BB681B789B004C
:10218C001A44BB6A43F4404343F080031360BB68BA
:10219C0093F82430012B40F0A982BB685A69FB8B61
:1021AC001A44BB685A61BB68DA69FB8B1A44BB687A
:1021BC00DA61BB681A6ABB681B699A4209D3BB68AF
:1021CC001B697B62BB681A6A7B6AD21ABB681A628B
:1021DC0014E0BB681B6A002B06D1FB8B7B62BB68CF
:1021EC00002283F8242009E0BB68002283F8242015
:1021FC00BB681B6A7B62BB6800221A62BB685B7897
:10220C00002B6AD1BB681B78DB0003F1804303F51C
:10221C00B2331A68BB681B78DB0003F1804303F50B
:10222C00B23322F07C421A607B6A002B12D1BB685D
:10223C001B78DB0003F1804303F5B2331A68BB68EB
:10224C001B78DB0003F1804303F5B23342F000420C
:10225C001A606AE07B6A3E2B1ED87B6A5B08FB62C5
:10226C007B6A03F00103002B02D0FB6A0133FB6293
:10227C00BB681B78DB0003F1804303F5B2331968AC
:10228C00FB6A9A06BB681B78DB0003F1804303F5FD
:10229C00B2330A431A6048E07B6A5B09FB627B6AD3
:1022AC0003F01F03002B02D1FB6A013BFB62BB68EE
:1022BC001B78DB0003F1804303F5B2331A68FB6A29
:1022CC009B061A43BB681B78DB0003F1804303F5C4
:1022DC00B23342F000421A6027E0BB685B78012BF6
:1022EC0023D1BB681B78DB0003F1804303F5B233C9
:1022FC001A68BB681B78DB0003F1804303F5B2332B
:10230C0092B21A60BB681B78DB0003F1804303F5C3
:10231C00B23319687B6A1A04BB681B78DB0003F1C3
:10232C00804303F5B2330A431A60FB681868BB6834
:10233C005969BB681A897B6A9BB205F034FED5E1FA
:10234C00FB681A68BB681B7819461046FEF77EFDC1
:10235C000346FB83BB689A69FB8B9A4208D3BB6824
:10236C009A69FB8BD21ABB689A6104E08F8FFF07C6
:10237C00BB6800229A61BB689B69002B40F0C1804E
:10238C00BB685B78002B24D1BB681B78DB0003F1A6
:10239C00804303F5B2331A68BB681B78DB0003F18A
:1023AC00804303F5B23322F07C421A60BB681B7881
:1023BC00DB0003F1804303F5B2331A68BB681B786A
:1023CC00DB0003F1804303F5B23342F000421A60A4
:1023DC0024E0BB685B78012B20D1BB681B78DB0049
:1023EC0003F1804303F5B2331A68BB681B78DB003A
:1023FC0003F1804303F5B23392B21A60BB681B78C9
:10240C00DB0003F1804202F5B232BB681B78DB00C3
:10241C0003F1804303F5B23312681A60BB685B7832
:10242C00002B24D1BB681B78DB0003F1804303F540
:10243C00B2335A68BB681B78DB0003F1804303F5A9
:10244C00B23322F07C425A60BB681B78DB0003F18C
:10245C00804303F5B2335A68BB681B78DB0003F189
:10246C00804303F5B23342F000425A6024E0BB686B
:10247C005B78012B20D1BB681B78DB0003F1804318
:10248C0003F5B2335A68BB681B78DB0003F1804359
:10249C0003F5B23392B25A60BB681B78DB0003F1D0
:1024AC00804202F5B232BB681B78DB0003F180433B
:1024BC0003F5B23352685A60BB681B781946F8684A
:1024CC000BF090FDFB8803F48043002B40F00E8151
:1024DC00FB681B681A46BB681B789B0013441A6880
:1024EC00954B13403B62FB681B681A46BB681B7814
:1024FC009B001A443B6A43F4404343F0800313604F
:10250C00F4E0FB8803F48043002B17D1FB681B68B5
:10251C001A46BB681B789B0013441A68864B134001
:10252C007B61FB681B681A46BB681B789B001A44CE
:10253C007B6943F4404343F080031360BB6893F81A
:10254C002430012B40F0D280BB685A69FB8B1A44B3
:10255C00BB685A61BB68DA69FB8B1A44BB68DA61E9
:10256C00BB681A6ABB681B699A4209D3BB681B69B2
:10257C007B62BB681A6A7B6AD21ABB681A6214E067
:10258C00BB681B6A002B06D1FB8B7B62BB680022ED
:10259C0083F8242009E0BB681B6A7B62BB680022BD
:1025AC001A62BB68002283F82420BB685B78002B7E
:1025BC006AD1BB681B78DB0003F1804303F5B233AF
:1025CC005A68BB681B78DB0003F1804303F5B23318
:1025DC0022F07C425A607B6A002B12D1BB681B78BC
:1025EC00DB0003F1804303F5B2335A68BB681B78F8
:1025FC00DB0003F1804303F5B23342F000425A6032
:10260C006AE07B6A3E2B1ED87B6A5B08BB617B6AE7
:10261C0003F00103002B02D0BB690133BB61BB6823
:10262C001B78DB0003F1804303F5B2335968BB69B7
:10263C009A06BB681B78DB0003F1804303F5B233C9
:10264C000A435A6048E07B6A5B09BB617B6A03F012
:10265C001F03002B02D1BB69013BBB61BB681B781C
:10266C00DB0003F1804303F5B2335A68BB699B0668
:10267C001A43BB681B78DB0003F1804303F5B233CC
:10268C0042F000425A6027E0BB685B78012B23D1F3
:10269C00BB681B78DB0003F1804303F5B2335A6847
:1026AC00BB681B78DB0003F1804303F5B23392B2B5
:1026BC005A60BB681B78DB0003F1804303F5B2332F
:1026CC0059687B6A1A04BB681B78DB0003F18043F2
:1026DC0003F5B2330A435A60FB681868BB68596942
:1026EC00BB685A897B6A9BB205F05DFCFB681B6872
:1026FC001A46BB681B789B0013441A680F4B134097
:10270C003B633B6B83F010033B633B6B83F0200319
:10271C003B63FB681B681A46BB681B789B001A441A
:10272C003B6B43F4004343F08003136000231846D3
:10273C003837BD4680BD00BF8F8FFF07BF8FFF07A7
:10274C0080B487B000AFF8607B600B467B8113468A
:10275C003B817B8903F080039BB2002B0CD07B89DF
:10276C0003F0070213469B001344DB001033FA6896
:10277C00134404337B610AE07A8913469B001344AB
:10278C00DB0003F5A873FA68134404337B613B89BF
:10279C00002B07D17B6900221A737B689AB27B6984
:1027AC00DA800BE07B6901221A737B689AB27B6931
:1027BC001A817B681B0C9AB27B695A8100231846DC
:1027CC001C37BD465DF8047B704780B485B000AF04
:1027DC0078607B681B68FB607B680122C3F8D4229D
:1027EC007B68002283F8CC22FB685B6D43F001020E
:1027FC00FB685A65FB685B6D43F00202FB685A6527
:10280C00002318461437BD465DF8047B704780B42E
:10281C0083B000AF78600B46FB7000BF0C37BD4631
:10282C005DF8047B7047000080B400AF054B9B6BD8
:10283C00044A43F00073936300BFBD465DF8047B0C
:10284C00704700BF0008024480B588B000AF7860C4
:10285C007B68002B02D1012300F028BC944BDB6970
:10286C0003F01803FB61924B9B6A03F00303BB61FB
:10287C007B681B6803F01003002B5BD0FB69082BF3
:10288C0005D0FB69182B14D1BB69022B11D17B68C5
:10289C00DB69002B02D1012300F008BC844B9B693F
:1028AC0023F47C127B681B6A1B04814913438B61E4
:1028BC0040E07B68DB69002B23D07D4B1B687C4A96
:1028CC0043F480731360FEF72BF9786108E0FEF790
:1028DC0027F902467B69D31A022B01D90323E5E3BE
:1028EC00734B1B6803F40073002BF0D0704B9B6987
:1028FC0023F47C127B681B6A1B046D4913438B61A8
:10290C0018E06B4B1B686A4A23F480731360FEF764
:10291C0007F9786108E0FEF703F902467B69D31AE0
:10292C00022B01D90323C1E3614B1B6803F4007331
:10293C00002BF0D17B681B6803F00103002B00F027
:10294C00A080FB69102B05D0FB69182B09D1BB6942
:10295C00032B06D17B685B68002B40F0928001232F
:10296C00A4E37B685B68B3F5803F06D1504B1B68D2
:10297C004F4A43F48033136058E07B685B68002B4C
:10298C0012D14B4B1B684A4A23F480331360484BDB
:10299C001B68474A23F480131360454B1B68444A59
:1029AC0023F48023136041E07B685B68B3F5A02FB0
:1029BC0012D13F4B1B683E4A43F4802313603C4BBF
:1029CC001B683B4A23F480131360394B1B68384A4D
:1029DC0043F48033136029E07B685B68B3F5A81F70
:1029EC0012D1334B1B68324A43F480231360304BB3
:1029FC001B682F4A43F4801313602D4B1B682C4A21
:102A0C0043F48033136011E0294B1B68284A23F4EC
:102A1C0080331360264B1B68254A23F480231360F4
:102A2C00234B1B68224A23F4801313607B685B687A
:102A3C00002B13D0FEF774F8786108E0FEF770F8FD
:102A4C0002467B69D31A642B01D903232EE3184B5E
:102A5C001B6803F40033002BF0D012E0FEF760F893
:102A6C00786108E0FEF75CF802467B69D31A642BA8
:102A7C0001D903231AE30E4B1B6803F40033002B1C
:102A8C00F0D17B681B6803F00203002B00F09A80E6
:102A9C00FB69002B05D0FB69182B49D1BB69012BB5
:102AAC0046D17B68DB68002B04D10123FEE200BF1A
:102ABC00000C0244FB69002B1CD19A4B1B6803F0E1
:102ACC0018027B681B699A4214D0964B1B6823F042
:102ADC0018027B681B69934913430B6000F0D0FD0F
:102AEC00914B1B681846FDF793FE0346002B01D053
:102AFC000123DBE2FEF714F8786108E0FEF710F82A
:102B0C0002467B69D31A022B01D90323CEE2854BF3
:102B1C001B6803F00203002BF0D0824B1B6923F4DB
:102B2C00FE027B685B691B047E4913430B6149E021
:102B3C007B68DB68002B2CD07A4B1B6823F01802C7
:102B4C007B681B69774913430B60764B1B68754A8E
:102B5C0043F001031360FDF7E3FF786108E0FDF734
:102B6C00DFFF02467B69D31A022B01D903239DE2B6
:102B7C006C4B1B6803F00203002BF0D0694B1B69F4
:102B8C0023F4FE027B685B691B04664913430B61EB
:102B9C0018E0644B1B68634A23F001031360FDF7D4
:102BAC00BFFF786108E0FDF7BBFF02467B69D31AD3
:102BBC00022B01D9032379E25A4B1B6803F0020361
:102BCC00002BF0D17B681B6803F00803002B3CD072
:102BDC007B689B69002B1CD0524BD3F8F030514AC8
:102BEC0043F08063C2F8F030FDF79AFF786108E09B
:102BFC00FDF796FF02467B69D31A022B01D90323FA
:102C0C0054E2484BD3F8F03003F00063002BEFD0C4
:102C1C001BE0444BD3F8F030424A23F08063C2F8F7
:102C2C00F030FDF77DFF786108E0FDF779FF024693
:102C3C007B69D31A022B01D9032337E2394BD3F822
:102C4C00F03003F00063002BEFD17B681B6803F0BE
:102C5C000403002B00F0D280344B5B6A03F00103B9
:102C6C00002B18D1314B5B6A304A43F0010353629D
:102C7C00FDF756FF786108E0FDF752FF02467B69CD
:102C8C00D31A022B01D9032310E2284B5B6A03F001
:102C9C000103002BF0D07B689B68012B08D1214BE2
:102CAC00D3F8F0301F4A43F00103C2F8F03074E05F
:102CBC007B689B68002B18D11A4BD3F8F030194A5B
:102CCC0023F00103C2F8F030164BD3F8F030154A5C
:102CDC0023F08003C2F8F030124BD3F8F030114AD5
:102CEC0023F00403C2F8F03057E07B689B68052B97
:102CFC001ED10C4BD3F8F0300A4A43F00403C2F84F
:102D0C00F030084BD3F8F030064A23F08003C2F8B9
:102D1C00F030044BD3F8F030024A43F00103C2F810
:102D2C00F0303AE0000C0244040000200008024499
:102D3C007B689B68852B18D1A24BD3F8F030A14A45
:102D4C0043F00403C2F8F0309E4BD3F8F0309D4AA8
:102D5C0043F08003C2F8F0309A4BD3F8F030994A24
:102D6C0043F00103C2F8F03017E0964BD3F8F03083
:102D7C00944A23F00103C2F8F030924BD3F8F030B0
:102D8C00904A23F00403C2F8F0308E4BD3F8F030A5
:102D9C008C4A23F08003C2F8F0307B689B68002BD0
:102DAC0016D0FDF7BDFE78610AE0FDF7B9FE0246CC
:102DBC007B69D31A41F28832934201D9032375E11E
:102DCC00804BD3F8F03003F00203002BEDD015E06C
:102DDC00FDF7A6FE78610AE0FDF7A2FE02467B69CC
:102DEC00D31A41F28832934201D903235EE1754B29
:102DFC00D3F8F03003F00203002BEDD17B681B6895
:102E0C0003F02003002B36D07B685B6A002B19D0B3
:102E1C006C4B1B686B4A43F480531360FDF780FEC8
:102E2C00786108E0FDF77CFE02467B69D31A022B21
:102E3C0001D903233AE1634B1B6803F40053002BC5
:102E4C00F0D018E05F4B1B685E4A23F4805313608C
:102E5C00FDF766FE786108E0FDF762FE02467B69CD
:102E6C00D31A022B01D9032320E1564B1B6803F420
:102E7C000053002BF0D17B689B6A002B00F015816E
:102E8C00FB69182B00F0AF807B689B6A022B40F02B
:102E9C0086804C4B1B684B4A23F080731360FDF704
:102EAC003FFE786108E0FDF73BFE02467B69D31AD2
:102EBC00022B01D90323F9E0424B1B6803F000738A
:102ECC00002BF0D13F4B9B6A23F47C5323F003037C
:102EDC007A68D16A7A68126B12020A433949134331
:102EEC008B627B685B6B013BC3F308027B689B6B5B
:102EFC00013B5B029BB21A437B68DB6B013B1B04FF
:102F0C0003F4FE031A437B681B6C013B1B0603F0A6
:102F1C00FE432C4913434B632A4B9B6A294A23F0EB
:102F2C00100393627B68DB6C264ADB009363254BB2
:102F3C009B6A244A43F010039362224B9B6A23F052
:102F4C000C027B685B6C1F4913438B621D4B9B6AA5
:102F5C0023F020027B689B6C1A4913438B62194B3C
:102F6C009B6A184A43F480339362164B1B68154ACC
:102F7C0043F080731360FDF7D3FD786108E0FDF733
:102F8C00CFFD02467B69D31A022B01D903238DE0B6
:102F9C000C4B1B6803F00073002BF0D085E0094B41
:102FAC001B68084A23F080731360FDF7B9FD786144
:102FBC000AE0FDF7B5FD02467B69D31A022B03D953
:102FCC00032373E0000C02443A4B1B6803F00073BC
:102FDC00002BEED1374B9B6A364A23F4E02323F0C7
:102FEC000303936261E0334B9B6A3B61314B5B6B38
:102FFC00FB607B689B6A012B31D03B6903F00302B9
:10300C007B68DB6A9A422AD13B691B0A03F03F02B8
:10301C007B681B6B9A4222D1FB68C3F308027B6866
:10302C005B6B013B9A421AD1FB685B0A03F07F028F
:10303C007B689B6B013B9A4211D1FB681B0C03F024
:10304C007F027B68DB6B013B9A4208D1FB681B0E4D
:10305C0003F07F027B681B6C013B9A4201D0012379
:10306C0024E0144B9B6BDB08C3F30C027B68DB6C1A
:10307C009A421AD00F4B9B6A0E4A23F010039362AC
:10308C00FDF74EFD786100BFFDF74AFD02467B69F6
:10309C009342F9D07B68DB6C064ADB009363054BEB
:1030AC009B6A044A43F010039362002318462037AE
:1030BC00BD4680BD000C024480B584B000AF786082
:1030CC0039607B68002B01D101239EE1834B1B6887
:1030DC0003F00F033A689A4210D9804B1B6823F017
:1030EC000F027E493B6813430B607C4B1B6803F05B
:1030FC000F033A689A4201D0012386E17B681B6872
:10310C0003F01003002B12D07B685A69744B1B6AB6
:10311C001B0A03F070039A4209D9714B1B6A23F402
:10312C00E0427B685B691B026D4913430B627B6851
:10313C001B6803F00803002B12D07B681A69684BDC
:10314C001B6A1B0903F070039A4209D9644B1B6A72
:10315C0023F4E0627B681B691B01614913430B621A
:10316C007B681B6803F00403002B10D07B68DA68C3
:10317C005B4B1B6A03F070039A4208D9584B1B6ACD
:10318C0023F070027B68DB68554913430B627B6844
:10319C001B6803F00203002B10D07B689A68504B1D
:1031AC001B6A03F00F039A4208D94D4B1B6A23F09C
:1031BC000F027B689B684A4913430B627B681B6850
:1031CC0003F00103002B00F093807B685B68032BFA
:1031DC0007D1434B1B6803F00073002B21D1012353
:1031EC0013E17B685B68022B07D13D4B1B6803F432
:1031FC000033002B15D1012307E17B685B68012BA1
:10320C0007D1374B1B6803F40073002B09D1012342
:10321C00FBE0334B1B6803F00203002B01D10123AD
:10322C00F3E02F4BDB6923F003027B685B682C49CE
:10323C001343CB61FDF774FCF8607B685B68032B70
:10324C0012D10AE0FDF76CFC0246FB68D31A41F27E
:10325C008832934201D90323D7E0214BDB6903F079
:10326C001803182BEED143E07B685B68022B12D15C
:10327C000AE0FDF755FC0246FB68D31A41F288328E
:10328C00934201D90323C0E0154BDB6903F018030B
:10329C00102BEED12CE07B685B68012B22D10AE06D
:1032AC00FDF73EFC0246FB68D31A41F2883293428A
:1032BC0001D90323A9E00A4BDB6903F01803082B9F
:1032CC00EED115E0FDF72CFC0246FB68D31A41F257
:1032DC008832934206D9032397E000BF00200240B6
:1032EC00000C02444B4BDB6903F01803002BE9D1B3
:1032FC007B681B6803F00203002B10D07B689A6874
:10330C00444B1B6A03F00F039A4208D2414B1B6AD1
:10331C0023F00F027B689B683E4913430B623E4BC4
:10332C001B6803F00F033A689A4210D23A4B1B68A1
:10333C0023F00F0238493B6813430B60364B1B6874
:10334C0003F00F033A689A4201D001235DE07B68D9
:10335C001B6803F00403002B10D07B68DA682D4B3C
:10336C001B6A03F070039A4208D22A4B1B6A23F0A3
:10337C0070027B68DB68274913430B627B681B6810
:10338C0003F00803002B12D07B681A69214B1B6ACF
:10339C001B0903F070039A4209D21E4B1B6A23F4DB
:1033AC00E0627B681B691B011A4913430B627B6843
:1033BC001B6803F01003002B12D07B685A69154B65
:1033CC001B6A1B0A03F070039A4209D2114B1B6A49
:1033DC0023F4E0427B685B691B020E4913430B62CA
:1033EC0000F022F802460B4B1B6A03F00F030B494B
:1033FC00CB5C22FA03F30A4A13600A4B1B6818468B
:10340C00FDF706FA0346FB72FB7A18461037BD46E9
:10341C0080BD00BF000C02440020024058FE000892
:10342C00000000200400002080B489B000AF8C4B59
:10343C00DB6903F01803082B02D18A4BFB6107E10F
:10344C00874BDB6903F01803002B12D1844B1B68EC
:10345C0003F02003002B09D0814B1B68DB0803F021
:10346C000303814A22FA03F3FB61F1E07E4BFB611B
:10347C00EEE07B4BDB6903F01803102B02D17B4B86
:10348C00FB61E5E0764BDB6903F01803182B40F089
:10349C00DD80734B9B6A03F003037B61704B9B6A6B
:1034AC001B0A03F03F033B616D4B9B6A1B0903F046
:1034BC000103FB606A4B9B6BDB08C3F30C03FA68DC
:1034CC0002FB03F307EE903AF8EE677AC7ED027A47
:1034DC003B69002B00F0B7807B69012B03D07B6923
:1034EC00032B56D077E05E4B1B6803F02003002BB8
:1034FC002DD05B4B1B68DB0803F003035A4A22FAFE
:10350C0003F37B607B6807EE903AF8EE676A3B69E1
:10351C0007EE903AF8EE677A86EEA77A504B5B6B23
:10352C00C3F3080307EE903AF8EE676A97ED026A68
:10353C00DFED4F5AC6EE257A76EEA77AF7EE006AE3
:10354C0077EEA67A67EE277AC7ED067A65E03B69D7
:10355C0007EE903AF8EE677ADFED466A86EEA77AC8
:10356C003F4B5B6BC3F3080307EE903AF8EE676AC8
:10357C0097ED026ADFED3E5AC6EE257A76EEA77A13
:10358C00F7EE006A77EEA67A67EE277AC7ED067A31
:10359C0043E03B6907EE903AF8EE677ADFED366A66
:1035AC0086EEA77A2E4B5B6BC3F3080307EE903ABB
:1035BC00F8EE676A97ED026ADFED2D5AC6EE257AB2
:1035CC0076EEA77AF7EE006A77EEA67A67EE277AA0
:1035DC00C7ED067A21E03B6907EE903AF8EE677A80
:1035EC00DFED266A86EEA77A1D4B5B6BC3F30803EF
:1035FC0007EE903AF8EE676A97ED026ADFED1C5A17
:10360C00C6EE257A76EEA77AF7EE006A77EEA67A02
:10361C0067EE277AC7ED067A00BF114B5B6B5B0A2E
:10362C0003F07F0301333B603B6807EE903AB8EE42
:10363C00677AD7ED066AC6EE877AFCEEE77A17EE64
:10364C00903AFB6104E00023FB6101E0064BFB6157
:10365C00FB6918462437BD465DF8047B704700BFF4
:10366C00000C024400093D000090D00340787D011D
:10367C00000000460024744C20BCBE4B0024744A4D
:10368C0080B500AFFFF7D0FE0246084B1B6A03F073
:10369C000F030749CB5C03F01F0322FA03F3054A1F
:1036AC001360044B1B68184680BD00BF000C02441D
:1036BC0058FE00080000002080B500AFFFF7E0FFC7
:1036CC000246064B1B6A1B0903F007030449CB5C3B
:1036DC0003F01F0322FA03F3184680BD000C0244CA
:1036EC0068FE000880B485B000AF786039607B68F4
:1036FC001F221A60154BDB6903F003027B685A60CA
:10370C00124B1B6AFB60FB6803F00F027B689A602C
:10371C00FB6803F070027B68DA60FB681B0903F03E
:10372C0070027B681A61FB681B0A03F070027B68ED
:10373C005A61074B1B6803F00F023B681A6000BF0D
:10374C001437BD465DF8047B704700BF000C024483
:10375C00002002402DE9B04FD8B000AFC7F84C01A3
:10376C00002387F85B31002387F85A31D7F84C31A6
:10377C00D3E9002302F08074002554EA05030BD032
:10378C00CD4BD3F8E83023F04041D7F84C319B6D4A
:10379C00C94A0B43C2F8E830D7F84C31D3E90023BF
:1037AC0002F001084FF0000958EA090342D0D7F89B
:1037BC004C31DB6D052B23D801A252F823F000BF4E
:1037CC0015380008E5370008F937000815380008E7
:1037DC001538000815380008D7F84C31083318464E
:1037EC0001F042FF034687F85B310EE0D7F84C310D
:1037FC003033184601F0D0FF034687F85B3104E004
:10380C00012387F85B3100E000BF97F85B31002B98
:10381C000CD1A94BD3F8D83023F00701D7F84C3191
:10382C00DB6DA54A0B43C2F8D83003E097F85B3147
:10383C0087F85A31D7F84C31D3E9002302F0020A49
:10384C004FF0000B5AEA0B0300F08880D7F84C318C
:10385C001B6E282B68D801A252F823F03D390008C2
:10386C003539000835390008353900083539000874
:10387C003539000835390008353900080D3900088C
:10388C003539000835390008353900083539000854
:10389C003539000835390008353900082139000858
:1038AC003539000835390008353900083539000834
:1038BC003539000835390008353900083D3900081C
:1038CC003539000835390008353900083539000814
:1038DC003539000835390008353900083D390008FC
:1038EC0035390008353900083539000835390008F4
:1038FC003539000835390008353900083D390008DC
:10390C00D7F84C310833184601F0AEFE034687F861
:10391C005B310EE0D7F84C313033184601F03CFFE8
:10392C00034687F85B3104E0012387F85B3100E044
:10393C0000BF97F85B31002B0CD15F4BD3F8D8301C
:10394C0023F03801D7F84C311B6E5B4A0B43C2F89D
:10395C00D83003E097F85B3187F85A31D7F84C31FF
:10396C00D3E9002302F00403C7F840310023C7F861
:10397C004431D7E950120B4613434ED0D7F84C3193
:10398C005B6EB3F5A07F2CD0B3F5A07F25D8B3F533
:10399C00807F28D0B3F5807F1FD8C02B25D0C02BBB
:1039AC001BD8802B0FD0802B17D8002B1FD0402B6F
:1039BC0013D1D7F84C310833184601F055FE0346A5
:1039CC0087F85B3114E0D7F84C313033184601F0EE
:1039DC00E3FE034687F85B310AE0012387F85B318D
:1039EC0006E000BF04E000BF02E000BF00E000BF43
:1039FC0097F85B31002B0CD12F4BD3F8D83023F434
:103A0C00E071D7F84C315B6E2B4A0B43C2F8D830BF
:103A1C0003E097F85B3187F85A31D7F84C31D3E98A
:103A2C00002302F00803C7F838310023C7F83C31F3
:103A3C00D7E94E120B46134356D0D7F84C319B6E38
:103A4C00B3F5206F31D0B3F5206F2AD8B3F5006FE2
:103A5C002DD0B3F5006F24D8B3F5C06F29D0B3F5D2
:103A6C00C06F1ED8B3F5806F11D0B3F5806F18D826
:103A7C00002B23D0B3F5007F13D1D7F84C3108338A
:103A8C00184601F0F1FD034687F85B3117E0D7F8D3
:103A9C004C313033184601F07FFE034687F85B311A
:103AAC000DE0012387F85B3109E000BF07E000BFA0
:103ABC0005E000BF03E000BF000C024400BF97F814
:103ACC005B31002B0CD1BB4BD3F8D83023F46061A5
:103ADC00D7F84C319B6EB74A0B43C2F8D83003E091
:103AEC0097F85B3187F85A31D7F84C31D3E900237A
:103AFC0002F01003C7F830310023C7F83431D7E98E
:103B0C004C120B46134353D0D7F84C31DB6EB3F544
:103B1C00A04F31D0B3F5A04F2AD8B3F5804F2DD09C
:103B2C00B3F5804F24D8B3F5405F29D0B3F5405F8F
:103B3C001ED8B3F5005F11D0B3F5005F18D8002B79
:103B4C0020D0B3F5805F13D1D7F84C310833184629
:103B5C0001F08AFD034687F85B3114E0D7F84C314D
:103B6C003033184601F018FE034687F85B310AE043
:103B7C00012387F85B3106E000BF04E000BF02E0E0
:103B8C0000BF00E000BF97F85B31002B0CD1894BD4
:103B9C00D3F8D83023F4E041D7F84C31DB6E854AAA
:103BAC000B43C2F8D83003E097F85B3187F85A31F1
:103BBC00D7F84C31D3E9002302F02003C7F82831A1
:103BCC000023C7F82C31D7E94A120B46134353D0C4
:103BDC00D7F84C311B6FB3F5203F31D0B3F5203FF4
:103BEC002AD8B3F5003F2DD0B3F5003F24D8B3F558
:103BFC00C03F29D0B3F5C03F1ED8B3F5803F11D0DC
:103C0C00B3F5803F18D8002B20D0B3F5004F13D15B
:103C1C00D7F84C310833184601F026FD034687F8D7
:103C2C005B3114E0D7F84C313033184601F0B4FD59
:103C3C00034687F85B310AE0012387F85B3106E025
:103C4C0000BF04E000BF02E000BF00E000BF97F837
:103C5C005B31002B0CD1574BD3F8D83023F46031A7
:103C6C00D7F84C311B6F534A0B43C2F8D83003E0E2
:103C7C0097F85B3187F85A31D7F84C31D3E90023E8
:103C8C0002F04003C7F820310023C7F82431D7E9EC
:103C9C0048120B46134353D0D7F84C315B6FB3F536
:103CAC00A01F31D0B3F5A01F2AD8B3F5801F2DD09B
:103CBC00B3F5801F24D8B3F5402F29D0B3F5402F8E
:103CCC001ED8B3F5002F11D0B3F5002F18D8002B48
:103CDC0020D0B3F5802F13D1D7F84C3108331846C8
:103CEC0001F0C2FC034687F85B3114E0D7F84C3185
:103CFC003033184601F050FD034687F85B310AE07B
:103D0C00012387F85B3106E000BF04E000BF02E04E
:103D1C0000BF00E000BF97F85B31002B0CD1254BA6
:103D2C00D3F8D83023F4E011D7F84C315B6F214A2B
:103D3C000B43C2F8D83003E097F85B3187F85A315F
:103D4C00D7F84C31D3E9002302F08003C7F81831BF
:103D5C000023C7F81C31D7E946120B46134355D044
:103D6C00D7F84C319B6FB3F5200F33D0B3F5200F40
:103D7C002CD8B3F5000F2FD0B3F5000F26D8B3F520
:103D8C00C00F2BD0B3F5C00F20D8B3F5800F13D0D4
:103D9C00B3F5800F1AD8002B22D0B3F5001F15D124
:103DAC00D7F84C310833184601F05EFC034687F80F
:103DBC005B3116E0000C0244D7F84C313033184616
:103DCC0001F0EAFC034687F85B310AE0012387F82F
:103DDC005B3106E000BF04E000BF02E000BF00E082
:103DEC0000BF97F85B31002B0CD1BB4BD3F8D8300C
:103DFC0023F46001D7F84C319B6FB74A0B43C2F8E0
:103E0C00D83003E097F85B3187F85A31D7F84C314A
:103E1C00D3E9002302F48073C7F810310023C7F8EC
:103E2C001431D7E944120B46134353D0D7F84C3115
:103E3C00DB6FB3F1A06F31D0B3F1A06F2AD8B3F11F
:103E4C00806F2DD0B3F1806F24D8B3F1407F29D08F
:103E5C00B3F1407F1ED8B3F1007F11D0B3F1007FD6
:103E6C0018D8002B20D0B3F1807F13D1D7F84C3168
:103E7C000833184601F0F8FB034687F85B3114E071
:103E8C00D7F84C313033184601F086FC034687F8DE
:103E9C005B310AE0012387F85B3106E000BF04E0E8
:103EAC0000BF02E000BF00E000BF97F85B31002BC1
:103EBC000CD1894BD3F8D83023F0E061D7F84C31D2
:103ECC00DB6F854A0B43C2F8D83003E097F85B31BF
:103EDC0087F85A31D7F84C31D3E9002302F4007338
:103EEC00C7F808310023C7F80C31D7E942120B464A
:103EFC00134355D0D7F84C31D3F88030B3F1205F51
:103F0C0031D0B3F1205F2AD8B3F1005F2DD0B3F1DB
:103F1C00005F24D8B3F1C05F29D0B3F1C05F1ED8C5
:103F2C00B3F1805F11D0B3F1805F18D8002B20D093
:103F3C00B3F1006F13D1D7F84C310833184601F0A8
:103F4C0093FB034687F85B3114E0D7F84C313033E0
:103F5C00184601F021FC034687F85B310AE0012387
:103F6C0087F85B3106E000BF04E000BF02E000BF51
:103F7C0000E000BF97F85B31002B0DD1564BD3F806
:103F8C00D83023F06051D7F84C31D3F88030524AF6
:103F9C000B43C2F8D83003E097F85B3187F85A31FD
:103FAC00D7F84C31D3E9002302F48063C7F8003111
:103FBC000023C7F80431D7E940120B46134344D011
:103FCC00D7F84C31D3F88430052B23D801A252F802
:103FDC0023F000BF29400008F93F00080D400008FD
:103FEC00294000082940000829400008D7F84C3126
:103FFC000833184601F038FB034687F85B310EE0B6
:10400C00D7F84C313033184601F0C6FB034687F81D
:10401C005B3104E0012387F85B3100E000BF97F8C7
:10402C005B31002B0DD12C4BD3F8DC3023F0070186
:10403C00D7F84C31D3F88430274A0B43C2F8DC3024
:10404C0003E097F85B3187F85A31D7F84C31D3E954
:10405C00002302F40063C7F8F8300023C7F8FC30E3
:10406C00D7E93E120B4613434FD0D7F84C31D3F857
:10407C008830502B29D0502B23D8402B27D0402BC5
:10408C001FD8302B25D0302B1BD8202B0FD0202B1A
:10409C0017D8002B22D0102B13D1D7F84C31083362
:1040AC00184601F0E1FA034687F85B3117E0D7F8C0
:1040BC004C313033184601F06FFB034687F85B3107
:1040CC000DE0012387F85B3109E000BF07E000BF7A
:1040DC0005E000BF03E000BF000C024400BF97F8EE
:1040EC005B31002B0DD1AF4BD3F8DC3023F07001DA
:1040FC00D7F84C31D3F88830AA4A0B43C2F8DC30DD
:10410C0003E097F85B3187F85A31D7F84C31D3E993
:10411C00002302F48053C7F8F0300023C7F8F430C2
:10412C00D7E93C120B46134355D0D7F84C31D3F892
:10413C008C30B3F1A06F31D0B3F1A06F2AD8B3F1AA
:10414C00806F2DD0B3F1806F24D8B3F1407F29D08C
:10415C00B3F1407F1ED8B3F1007F11D0B3F1007FD3
:10416C0018D8002B20D0B3F1807F13D1D7F84C3165
:10417C000833184601F078FA034687F85B3114E0EF
:10418C00D7F84C313033184601F006FB034687F85C
:10419C005B310AE0012387F85B3106E000BF04E0E5
:1041AC0000BF02E000BF00E000BF97F85B31002BBE
:1041BC000DD17C4BD3F8E03023F0E061D7F84C31D3
:1041CC00D3F88C30774A0B43C2F8E03003E097F811
:1041DC005B3187F85A31D7F84C31D3E9002302F41C
:1041EC000053C7F8E8300023C7F8EC30D7E93A128F
:1041FC000B4613433DD0D7F84C31D3F89030B3F580
:10420C00403F1BD0B3F5403F14D8B3F5003F17D057
:10421C00B3F5003F0ED8002B14D0B3F5803F09D175
:10422C00D7F84C313033184601F0B6FA034687F80C
:10423C005B3108E0012387F85B3104E000BF02E04A
:10424C0000BF00E000BF97F85B31002B0DD1554B40
:10425C00D3F8E43023F44031D7F84C31D3F8903014
:10426C00504A0B43C2F8E43003E097F85B3187F80F
:10427C005A31D7F84C31D3E9002302F48043C7F804
:10428C00E0300023C7F8E430D7E938120B4613436B
:10429C003DD0D7F84C31D3F89430B3F5402F1BD028
:1042AC00B3F5402F14D8B3F5002F17D0B3F5002F6A
:1042BC000ED8002B14D0B3F5802F09D1D7F84C3180
:1042CC003033184601F068FA034687F85B3108E092
:1042DC00012387F85B3104E000BF02E000BF00E07F
:1042EC0000BF97F85B31002B0DD12E4BD3F8E43087
:1042FC0023F44021D7F84C31D3F89430294A0B439E
:10430C00C2F8E43003E097F85B3187F85A31D7F8FC
:10431C004C31D3E9002302F40043C7F8D830002312
:10432C00C7F8DC30D7E936120B46134340D0D7F828
:10433C004C31D3F89830B3F5401F1BD0B3F5401F68
:10434C0014D8B3F5001F17D0B3F5001F0ED8002BEF
:10435C0014D0B3F5801F09D1D7F84C31303318463F
:10436C0001F01AFA034687F85B3108E0012387F85D
:10437C005B3104E000BF02E000BF00E000BF97F833
:10438C005B31002B10D1074BD3F8E43023F44011F0
:10439C00D7F84C31D3F89830024A0B43C2F8E430CA
:1043AC0006E000BF000C024497F85B3187F85A31E5
:1043BC00D7F84C31D3E900230021C7F8D01003F40F
:1043CC008063C7F8D430D7E934120B4613433DD081
:1043DC00D7F84C31D3F89C30B3F5400F1BD0B3F564
:1043EC00400F14D8B3F5000F17D0B3F5000F0ED84B
:1043FC00002B14D0B3F5800F09D1D7F84C313033E2
:10440C00184601F0C9F9034687F85B3108E001232F
:10441C0087F85B3104E000BF02E000BF00E000BFA2
:10442C0097F85B31002B0DD1BE4BD3F8E43023F45D
:10443C004001D7F84C31D3F89C30BA4A0B43C2F840
:10444C00E43003E097F85B3187F85A31D7F84C31F8
:10445C00D3E9002302F48033C7F8C8300023C7F82F
:10446C00CC30D7E932120B46134335D0D7F84C3148
:10447C00D3F8A030B3F1007F15D0B3F1007F0ED884
:10448C00002B12D0B3F1807F09D1D7F84C313033E7
:10449C00184601F081F9034687F85B3106E00123E9
:1044AC0087F85B3102E000BF00E000BF97F85B319A
:1044BC00002B0DD19B4BD3F8E43023F04071D7F88F
:1044CC004C31D3F8A030974A0B43C2F8E43003E0E8
:1044DC0097F85B3187F85A31D7F84C31D3E9002380
:1044EC000021C7F8C01003F40063C7F8C430D7E943
:1044FC0030120B4613430ED08A4BDB69894A23F4E6
:10450C000043D361874BD969D7F84C31D3F80431C8
:10451C00844A0B43D361D7F84C31D3E9002302F41E
:10452C000033C7F8B8300023C7F8BC30D7E92E12D7
:10453C000B46134355D0D7F84C31D3F8A430B3F510
:10454C00A06F31D0B3F5A06F2AD8B3F5806F2DD002
:10455C00B3F5806F24D8B3F5407F29D0B3F5407FF5
:10456C001ED8B3F5007F11D0B3F5007F18D8002BFF
:10457C0020D0B3F5807F13D1D7F84C3108331846CF
:10458C0001F072F8034687F85B3114E0D7F84C3130
:10459C003033184601F000F9034687F85B310AE026
:1045AC00012387F85B3106E000BF04E000BF02E0A6
:1045BC0000BF00E000BF97F85B31002B0DD1594BC9
:1045CC00D3F8DC3023F4E061D7F84C31D3F8A430C5
:1045DC00544A0B43C2F8DC3003E097F85B3187F8A0
:1045EC005A31D7F84C31D3E9002302F48023C7F8B1
:1045FC00B0300023C7F8B430D7E92C120B46134364
:10460C0055D0D7F84C31D3F8A830B3F5A04F31D0F2
:10461C00B3F5A04F2AD8B3F5804F2DD0B3F5804F0A
:10462C0024D8B3F5405F29D0B3F5405F1ED8B3F55D
:10463C00005F11D0B3F5005F18D8002B20D0B3F574
:10464C00805F13D1D7F84C310833184601F00CF8C1
:10465C00034687F85B3114E0D7F84C3130331846F9
:10466C0001F09AF8034687F85B310AE0012387F8DA
:10467C005B3106E000BF04E000BF02E000BF00E0D9
:10468C0000BF97F85B31002B0DD1264BD3F8DC30F3
:10469C0023F4E041D7F84C31D3F8A830214A0B432E
:1046AC00C2F8DC3003E097F85B3187F85A31D7F861
:1046BC004C31D3E900230021C7F8A81003F02003E4
:1046CC00C7F8AC30D7E92A120B46134357D0D7F8AA
:1046DC004C31D3F8AC30B3F5A02F33D0B3F5A02FB9
:1046EC002CD8B3F5802F2FD0B3F5802F26D8B3F567
:1046FC00403F2BD0B3F5403F20D8B3F5003F13D04B
:10470C00B3F5003F1AD8002B22D0B3F5803F15D15A
:10471C00D7F84C310833184600F0A6FF034687F84B
:10472C005B3116E0000C0244D7F84C31303318469C
:10473C0001F032F8034687F85B310AE0012387F871
:10474C005B3106E000BF04E000BF02E000BF00E008
:10475C0000BF97F85B31002B0DD1BB4BD3F8DC308D
:10476C0023F4E021D7F84C31D3F8AC30B64A0B43E4
:10477C00C2F8DC3003E097F85B3187F85A31D7F890
:10478C004C31D3E900230021C7F8A01003F04003FB
:10479C00C7F8A430D7E928120B46134355D0D7F8E5
:1047AC004C31D3F8B030B3F5A00F31D0B3F5A00F26
:1047BC002AD8B3F5800F2DD0B3F5800F24D8B3F5DC
:1047CC00401F29D0B3F5401F1ED8B3F5001F11D0E0
:1047DC00B3F5001F18D8002B20D0B3F5801F13D1D0
:1047EC00D7F84C310833184600F03EFF034687F8E3
:1047FC005B3114E0D7F84C313033184600F0CCFF65
:10480C00034687F85B310AE0012387F85B3106E049
:10481C0000BF04E000BF02E000BF00E000BF97F85B
:10482C005B31002B0DD1884BD3F8DC3023F4E00145
:10483C00D7F84C31D3F8B030834A0B43C2F8DC3094
:10484C0003E097F85B3187F85A31D7F84C31D3E94C
:10485C0000230021C7F8981003F08003C7F89C30A0
:10486C00D7E926120B46134355D0D7F84C31D3F861
:10487C00B430B3F1A06F31D0B3F1A06F2AD8B3F13B
:10488C00806F2DD0B3F1806F24D8B3F1407F29D045
:10489C00B3F1407F1ED8B3F1007F11D0B3F1007F8C
:1048AC0018D8002B20D0B3F1807F13D1D7F84C311E
:1048BC000833184600F0D8FE034687F85B3114E045
:1048CC00D7F84C313033184600F066FF034687F8B2
:1048DC005B310AE0012387F85B3106E000BF04E09E
:1048EC0000BF02E000BF00E000BF97F85B31002B77
:1048FC000DD1554BD3F8DC3023F0E061D7F84C31B7
:10490C00D3F8B430504A0B43C2F8DC3003E097F8CC
:10491C005B3187F85A31D7F84C31D3E900230021A9
:10492C00C7F8901003F48073C7F89430D7E92412B9
:10493C000B46134355D0D7F84C31D3F8B830B3F1FC
:10494C00A04F31D0B3F1A04F2AD8B3F1804F2DD066
:10495C00B3F1804F24D8B3F1405F29D0B3F1405F5D
:10496C001ED8B3F1005F11D0B3F1005F18D8002B43
:10497C0020D0B3F1805F13D1D7F84C3108331846EF
:10498C0000F072FE034687F85B3114E0D7F84C3127
:10499C003033184600F000FF034687F85B310AE01D
:1049AC00012387F85B3106E000BF04E000BF02E0A2
:1049BC0000BF00E000BF97F85B31002B0DD1224BFC
:1049CC00D3F8DC3023F0E041D7F84C31D3F8B830D1
:1049DC001D4A0B43C2F8DC3003E097F85B3187F8D3
:1049EC005A31D7F84C31D3E9002302F40023C7F82D
:1049FC0088300023C7F88C30D7E922120B461343BA
:104A0C0055D0D7F84C31D3F8C030B3F5802F35D012
:104A1C00B3F5802F2ED8B3F5403F31D0B3F5403FDE
:104A2C0028D8B3F5003F1BD0B3F5003F22D8002B9C
:104A3C0003D0B3F5803F09D01CE0034B9B6A024ABC
:104A4C0043F4003393621CE0000C0244D7F84C3161
:104A5C000833184600F008FE034687F85B3110E077
:104A6C00D7F84C313033184600F096FE034687F8E1
:104A7C005B3106E0012387F85B3102E000BF00E008
:104A8C0000BF97F85B31002B0DD1C34BD3F8E83046
:104A9C0023F4E021D7F84C31D3F8C030BE4A0B4395
:104AAC00C2F8E83003E097F85B3187F85A31D7F851
:104ABC004C31D3E9002302F48013C7F88030002373
:104ACC00C7F88430D7E920120B46134351D0D7F8DE
:104ADC004C31D3F8C430B3F5001F33D0B3F5001FFD
:104AEC002CD8B3F5C01F2DD0B3F5C01F26D8B3F505
:104AFC00801F19D0B3F5801F20D8002B03D0B3F53D
:104B0C00002F07D01AE0A44B9B6AA34A43F400334E
:104B1C00936218E0D7F84C310833184600F0A4FD26
:104B2C00034687F85B310EE0D7F84C31303318462A
:104B3C0000F032FE034687F85B3104E0012387F86E
:104B4C005B3100E000BF97F85B31002B0DD1924B2D
:104B5C00D3F8E83023F46011D7F84C31D3F8C430D3
:104B6C008D4A0B43C2F8E83003E097F85B3187F8C5
:104B7C005A31D7F84C31D3E9002302F40013BB6748
:104B8C000023FB67D7E91E120B46134332D0D7F82C
:104B9C004C31D3F8D430052B0FD8032B11D2012B69
:104BAC0011D9022B09D1D7F84C310833184600F033
:104BBC005BFD034687F85B3106E0012387F85B3128
:104BCC0002E000BF00E000BF97F85B31002B0DD175
:104BDC00714BD3F8E83023F00701D7F84C31D3F8F8
:104BEC00D4306D4A0B43C2F8E83003E097F85B31E0
:104BFC0087F85A31D7F84C31D3E9002300213967B3
:104C0C0003F400737B67D7E91C120B46134324D0C3
:104C1C00D7F84C31D3F8D830002B05D0082B05D061
:104C2C00012387F85B3102E000BF00E000BF97F87A
:104C3C005B31002B0DD1584BD3F8E83023F0080131
:104C4C00D7F84C31D3F8D830534A0B43C2F8E8307C
:104C5C0003E097F85B3187F85A31D7F84C31D3E938
:104C6C00002302F00073BB660023FB66D7E91A121F
:104C7C000B46134300F0B980484B5B6A474A43F03C
:104C8C0001035362FBF74CFFC7F854010BE0FBF731
:104C9C0047FF0246D7F85431D31A022B03D903230A
:104CAC0087F85B3105E03D4B5B6A03F00103002B99
:104CBC00EDD097F85B31002B40F09380364BD3F856
:104CCC00F03003F44073C7F85C31D7F85C31002B3B
:104CDC0023D0D7F84C31D3F8F820D7F85C31934275
:104CEC001BD02D4BD3F8F03023F44073C7F85C3154
:104CFC00294BD3F8F030284A43F48033C2F8F03013
:104D0C00254BD3F8F030244A23F48033C2F8F0302A
:104D1C00214AD7F85C31C2F8F030D7F85C3103F097
:104D2C000103002B19D0FBF7FBFEC7F854010DE073
:104D3C00FBF7F6FE0246D7F85431D21A41F288330B
:104D4C009A4203D9032387F85B3106E0124BD3F860
:104D5C00F03003F00203002BEAD097F85B31002B04
:104D6C003AD1D7F84C31D3F8F83003F44073B3F59B
:104D7C00407F15D1084BDB6923F47C51D7F84C31BB
:104D8C00D3F8F8301B0923F07F4323F03003024A99
:104D9C000B43D3610AE000BF000C0244000802443C
:104DAC009F4BDB699E4A23F47C53D3619C4BD3F815
:104DBC00F0309B4A23F44073C2F8F030984BD3F890
:104DCC00F010D7F84C31D3F8F830C3F30B03944AF6
:104DDC000B43C2F8F03008E097F85B3187F85A3192
:104DEC0003E097F85B3187F85A31D7F84C31D3E9A7
:104DFC00002302F080633B6600237B66D7E9181220
:104E0C000B46134335D0D7F84C31D3F8C830302B80
:104E1C0014D0302B0ED8202B12D0202B0AD8002BDC
:104E2C0010D0102B06D17E4B9B6A7D4A43F4003385
:104E3C00936208E0012387F85B3104E000BF02E0D5
:104E4C0000BF00E000BF97F85B31002B0DD1744B15
:104E5C00D3F8E83023F03001D7F84C31D3F8C83010
:104E6C006F4A0B43C2F8E83003E097F85B3187F8E0
:104E7C005A31D7F84C31D3E9002302F48003BB65D7
:104E8C000023FB65D7E916120B46134333D0D7F832
:104E9C004C31D3F8CC30002B02D0402B07D010E093
:104EAC005F4B9B6A5E4A43F4003393620DE0D7F884
:104EBC004C310833184600F0D7FB034687F85B31BA
:104ECC0003E0012387F85B3100BF97F85B31002BBF
:104EDC000DD1534BD3F8E43023F04001D7F84C31CB
:104EEC00D3F8CC304E4A0B43C2F8E43003E097F8C9
:104EFC005B3187F85A31D7F84C31D3E9002302F4EF
:104F0C0000033B6500237B65D7E914120B46134362
:104F1C0033D0D7F84C31D3F8D030002B02D0802BC3
:104F2C0007D010E03E4B9B6A3D4A43F4003393623A
:104F3C000DE0D7F84C310833184600F095FB0346CA
:104F4C0087F85B3103E0012387F85B3100BF97F8EA
:104F5C005B31002B0DD1324BD3F8E43023F08001C0
:104F6C00D7F84C31D3F8D0302D4A0B43C2F8E4308B
:104F7C0003E097F85B3187F85A31D7F84C31D3E915
:104F8C00002302F00063BB640023FB64D7E9121218
:104F9C000B4613434AD0D7F84C31D3F8E030042BEE
:104FAC0027D801A252F823F0C94F0008D74F0008A8
:104FBC00EB4F00080750000807500008184B9B6A7D
:104FCC00174A43F40033936218E0D7F84C31083396
:104FDC00184600F049FB034687F85B310EE0D7F822
:104FEC004C313033184600F0D7FB034687F85B3161
:104FFC0004E0012387F85B3100E000BF97F85B31D8
:10500C00002B0FD1064BD3F8E03023F00701D7F873
:10501C004C31D3F8E030024A0B43C2F8E03005E0E3
:10502C00000C024497F85B3187F85A31D7F84C31B1
:10503C00D3E9002302F080533B6400237B64D7E95F
:10504C0010120B46134300F08180D7F84C31D3F883
:10505C00E430202B5FD801A252F823F0ED50000869
:10506C002351000823510008235100082351000844
:10507C00235100082351000823510008FB5000085D
:10508C002351000823510008235100082351000824
:10509C002351000823510008235100080F51000828
:1050AC002351000823510008235100082351000804
:1050BC002351000823510008235100082B510008EC
:1050CC0023510008235100082351000823510008E4
:1050DC002351000823510008235100082B510008CC
:1050EC00AB4B9B6AAA4A43F40033936218E0D7F89F
:1050FC004C310833184600F0B7FA034687F85B3199
:10510C000EE0D7F84C313033184600F045FB03461F
:10511C0087F85B3104E0012387F85B3100E000BFC6
:10512C0097F85B31002B0DD1994BD3F8E03023F07D
:10513C003801D7F84C31D3F8E430954A0B43C2F818
:10514C00E03003E097F85B3187F85A31D7F84C31EF
:10515C00D3E9002302F00053BB630023FB63D7E9C0
:10516C000E120B4613434ED0D7F84C31D3F8E8301F
:10517C00B3F5807F2ED0B3F5807F27D8C02B2BD0F2
:10518C00C02B23D8802B17D0802B1FD8002B02D0FC
:10519C00402B07D01AE07E4B9B6A7D4A43F40033C8
:1051AC0093621AE0D7F84C310833184600F05CFAD9
:1051BC00034687F85B3110E0D7F84C313033184692
:1051CC0000F0EAFA034687F85B3106E0012387F822
:1051DC005B3102E000BF00E000BF97F85B31002BB1
:1051EC000DD16B4BD3F8E03023F4E071D7F84C3190
:1051FC00D3F8E830664A0B43C2F8E03003E097F886
:10520C005B3187F85A31D7F84C31D3E9002302F0DF
:10521C0080433B6300237B63D7E90C120B4613439B
:10522C0055D0D7F84C31D3F8EC30B3F5206F31D0E2
:10523C00B3F5206F2AD8B3F5006F2DD0B3F5006FFE
:10524C0024D8B3F5C06F29D0B3F5C06F1ED8B3F511
:10525C00806F11D0B3F5806F18D8002B20D0B3F528
:10526C00007F13D1D7F84C310833184600F0FCF905
:10527C00034687F85B3114E0D7F84C3130331846CD
:10528C0000F08AFA034687F85B310AE0012387F8BD
:10529C005B3106E000BF04E000BF02E000BF00E0AD
:1052AC0000BF97F85B31002B0DD1394BD3F8E030B0
:1052BC0023F46061D7F84C31D3F8EC30344A0B430B
:1052CC00C2F8E03003E097F85B3187F85A31D7F831
:1052DC004C31D3E9002302F00043BB620023FB6294
:1052EC00D7E90A120B46134358D0D7F84C31D3F8F0
:1052FC00F030B3F5A04F31D0B3F5A04F2AD8B3F5A9
:10530C00804F2DD0B3F5804F24D8B3F5405F29D012
:10531C00B3F5405F1ED8B3F5005F11D0B3F5005F55
:10532C0018D8002B20D0B3F5805F13D1D7F84C31AF
:10533C000833184600F098F9034687F85B3114E0FF
:10534C00D7F84C313033184600F026FA034687F86C
:10535C005B310AE0012387F85B3106E000BF04E013
:10536C0000BF02E000BF00E000BF97F85B31002BEC
:10537C0010D1074BD3F8E03023F4E042D7F84C318E
:10538C00D3F8F03002491343C1F8E03006E000BF17
:10539C00000C024497F85B3187F85A31D7F84C313E
:1053AC00D3E900230021396203F001037B62D7E9C2
:1053BC0008120B46134355D0D7F84C31D3F8F430C0
:1053CC00B3F5203F31D0B3F5203F2AD8B3F5003FD9
:1053DC002DD0B3F5003F24D8B3F5C03F29D0B3F599
:1053EC00C03F1ED8B3F5803F11D0B3F5803F18D81D
:1053FC00002B20D0B3F5004F13D1D7F84C31083324
:10540C00184600F031F9034687F85B3114E0D7F801
:10541C004C313033184600F0BFF9034687F85B3146
:10542C000AE0012387F85B3106E000BF04E000BF0F
:10543C0002E000BF00E000BF97F85B31002B0DD1FC
:10544C00884BD3F8E03023F46032D7F84C31D3F8E2
:10545C00F43084491343C1F8E03003E097F85B3132
:10546C0087F85A31D7F84C31D3E900230021B961C0
:10547C0003F00203FB61D7E906120B4613433DD040
:10548C00D7F84C31D3F8DC30032B1CD801A252F8DE
:10549C0023F000BFDB540008B1540008BF540008CF
:1054AC00DB5400086F4B9B6A6E4A43F400339362E3
:1054BC000EE0D7F84C310833184600F0D5F8034607
:1054CC0087F85B3104E0012387F85B3100E000BF13
:1054DC0097F85B31002B0DD1624BD3F8E43023F0FD
:1054EC000302D7F84C31D3F8DC305E491343C1F8D2
:1054FC00E43003E097F85B3187F85A31D7F84C3138
:10550C00D3E900230021396103F004037B61D7E95F
:10551C0004120B4613433AD0D7F84C31D3F8BC30B5
:10552C00B3F5007F0ED0B3F5007F15D8002B17D044
:10553C00B3F5807F10D14B4B9B6A4A4A43F400333E
:10554C0093620EE0D7F84C310833184600F08CF813
:10555C00034687F85B3104E0012387F85B3100E0F8
:10556C0000BF97F85B31002B0DD13E4BD3F8E830E0
:10557C0023F44072D7F84C31D3F8BC30394913437B
:10558C00C1F8E83003E097F85B3187F85A31D7F867
:10559C004C31D3E900230021B96003F01003FB6008
:1055AC00D7E902120B46134338D0D7F84C31D3F855
:1055BC000031302B1BD0302B15D8102B02D0202BC8
:1055CC0007D010E0274B9B6A264A43F400339362C2
:1055DC000EE0D7F84C313033184600F0DDF80346B6
:1055EC0087F85B3104E0012387F85B3100E000BFF2
:1055FC0097F85B31002B0DD11A4BD3F8E43023F024
:10560C003002D7F84C31D3F8003116491343C1F8A6
:10561C00E43003E097F85B3187F85A31D7F84C3116
:10562C00D3E900230021396003F008037B60D7E93C
:10563C0000120B4613430CD00A4BD3F8E83023F07E
:10564C00C002D7F84C31D3F8FC3006491343C1F8EB
:10565C00E83097F85A31184607F5B077BD46BDE8E3
:10566C00B08F00BF000C024480B584B000AF7860EE
:10567C00484B1B68474A23F080631360FBF750FAD2
:10568C00F86008E0FBF74CFA0246FB68D31A022BD1
:10569C0001D903237AE03F4B1B6803F00063002B16
:1056AC00F0D13C4BDB6A23F47C5323F003037A6880
:1056BC0011687A68526812020A4336491343CB6266
:1056CC007B689B68013BC3F308027B68DB68013B8A
:1056DC005B029BB21A437B681B69013B1B0403F4FE
:1056EC00FE031A437B685B69013B1B0603F0FE4318
:1056FC0028491343CB63274BDB6A23F00C027B68EE
:10570C009B6924491343CB62224BDB6A23F02002B2
:10571C007B68DB691F491343CB621E4BDA6A7B68DB
:10572C005B6A1C491343CB621A4BDB6A194A23F0A0
:10573C001003D362174B1B6C23F47F4323F0F80345
:10574C007A68126AD200134913430B64114BDB6A5B
:10575C00104A43F01003D3620E4B1B680D4A43F002
:10576C0080631360FBF7DCF9F86008E0FBF7D8F90D
:10577C000246FB68D31A022B01D9032306E0054B22
:10578C001B6803F00063002BF0D000231846103781
:10579C00BD4680BD000C024480B584B000AF78607B
:1057AC00484B1B68474A23F080531360FBF7B8F94A
:1057BC00F86008E0FBF7B4F90246FB68D31A022B39
:1057CC0001D903237AE03F4B1B6803F00053002BF5
:1057DC00F0D13C4B1B6B23F47C5323F003037A680E
:1057EC0011687A68526812020A43364913430B63F4
:1057FC007B689B68013BC3F308027B68DB68013B59
:10580C005B029BB21A437B681B69013B1B0403F4CC
:10581C00FE031A437B685B69013B1B0603F0FE43E6
:10582C00284913434B64274B1B6B23F00C027B68FA
:10583C009B69244913430B63224B1B6B23F02002FF
:10584C007B68DB691F4913430B631E4B1A6B7B6828
:10585C005B6A1C4913430B631A4B1B6B194A23F0ED
:10586C0010031363174B9B6C23F47F4323F0F80353
:10587C007A68126AD200134913438B64114B1B6B69
:10588C00104A43F0100313630E4B1B680D4A43F090
:10589C0080531360FBF744F9F86008E0FBF740F91C
:1058AC000246FB68D31A022B01D9032306E0054BF1
:1058BC001B6803F00053002BF0D000231846103760
:1058CC00BD4680BD000C024480B582B000AF78604C
:1058DC007B68002B01D1012349E07B6893F83D30B4
:1058EC00DBB2002B06D17B68002283F83C20786861
:1058FC0000F041F87B68022283F83D207B681A682F
:10590C007B6804331946104600F066FA7B68012266
:10591C0083F848207B68012283F83E207B680122B3
:10592C0083F83F207B68012283F840207B680122AA
:10593C0083F841207B68012283F842207B68012296
:10594C0083F843207B68012283F844207B68012282
:10595C0083F845207B68012283F846207B6801226E
:10596C0083F847207B68012283F83D2000231846EA
:10597C000837BD4680BD80B483B000AF786000BFEF
:10598C000C37BD465DF8047B7047000080B485B0D1
:10599C0000AF78607B6893F83D30DBB2012B01D00F
:1059AC0001237CE07B68022283F83D207B681B6826
:1059BC00DA687B681B6842F00102DA607B681B685E
:1059CC003A4A93424AD07B681B68394A934245D085
:1059DC007B681B68B3F1804F40D07B681B68B3F1C8
:1059EC00A04F3BD07B681B68324A934236D07B6811
:1059FC001B68314A934231D07B681B682F4A934213
:105A0C002CD07B681B682E4A934227D07B681B687E
:105A1C002C4A934222D07B681B682B4A93421DD0A0
:105A2C007B681B68294A934218D07B681B68284AFC
:105A3C00934213D07B681B68264A93420ED07B6836
:105A4C001B68254A934209D07B681B68234A934202
:105A5C0004D07B681B68224A934215D17B681B6873
:105A6C009A68204B1340FB60FB68062B15D0FB6833
:105A7C00B3F5803F11D07B681B681A687B681B6884
:105A8C0042F001021A6008E07B681B681A687B68A8
:105A9C001B6842F001021A6000E000BF00231846A8
:105AAC001437BD465DF8047B704700BF002C0140E5
:105ABC00002C01500004004000040050000800407D
:105ACC0000080050000C0040000C00500034014055
